{"abi":[{"type":"constructor","inputs":[{"name":"_clawmegle","type":"address","internalType":"address"},{"name":"_oracle","type":"address","internalType":"address"}],"stateMutability":"nonpayable"},{"type":"function","name":"BURN_ADDRESS","inputs":[],"outputs":[{"name":"","type":"address","internalType":"address"}],"stateMutability":"view"},{"type":"function","name":"FEE_BPS","inputs":[],"outputs":[{"name":"","type":"uint256","internalType":"uint256"}],"stateMutability":"view"},{"type":"function","name":"LOBBY_TIMEOUT","inputs":[],"outputs":[{"name":"","type":"uint256","internalType":"uint256"}],"stateMutability":"view"},{"type":"function","name":"PLAYERS_PER_GAME","inputs":[],"outputs":[{"name":"","type":"uint256","internalType":"uint256"}],"stateMutability":"view"},{"type":"function","name":"STAKE_AMOUNT","inputs":[],"outputs":[{"name":"","type":"uint256","internalType":"uint256"}],"stateMutability":"view"},{"type":"function","name":"cancelExpiredLobby","inputs":[{"name":"gameId","type":"uint256","internalType":"uint256"}],"outputs":[],"stateMutability":"nonpayable"},{"type":"function","name":"clawmegle","inputs":[],"outputs":[{"name":"","type":"address","internalType":"contract IERC20"}],"stateMutability":"view"},{"type":"function","name":"completeGame","inputs":[{"name":"gameId","type":"uint256","internalType":"uint256"},{"name":"winners","type":"address[]","internalType":"address[]"}],"outputs":[],"stateMutability":"nonpayable"},{"type":"function","name":"createGame","inputs":[],"outputs":[{"name":"gameId","type":"uint256","internalType":"uint256"}],"stateMutability":"nonpayable"},{"type":"function","name":"gameCount","inputs":[],"outputs":[{"name":"","type":"uint256","internalType":"uint256"}],"stateMutability":"view"},{"type":"function","name":"games","inputs":[{"name":"","type":"uint256","internalType":"uint256"}],"outputs":[{"name":"playerCount","type":"uint8","internalType":"uint8"},{"name":"state","type":"uint8","internalType":"enum LobsterTrap.GameState"},{"name":"createdAt","type":"uint256","internalType":"uint256"},{"name":"totalPot","type":"uint256","internalType":"uint256"}],"stateMutability":"view"},{"type":"function","name":"getGame","inputs":[{"name":"gameId","type":"uint256","internalType":"uint256"}],"outputs":[{"name":"players","type":"address[5]","internalType":"address[5]"},{"name":"playerCount","type":"uint8","internalType":"uint8"},{"name":"state","type":"uint8","internalType":"enum LobsterTrap.GameState"},{"name":"createdAt","type":"uint256","internalType":"uint256"},{"name":"totalPot","type":"uint256","internalType":"uint256"}],"stateMutability":"view"},{"type":"function","name":"getOpenLobbies","inputs":[{"name":"limit","type":"uint256","internalType":"uint256"}],"outputs":[{"name":"","type":"uint256[]","internalType":"uint256[]"}],"stateMutability":"view"},{"type":"function","name":"isPlayerInGame","inputs":[{"name":"player","type":"address","internalType":"address"}],"outputs":[{"name":"","type":"bool","internalType":"bool"},{"name":"","type":"uint256","internalType":"uint256"}],"stateMutability":"view"},{"type":"function","name":"joinGame","inputs":[{"name":"gameId","type":"uint256","internalType":"uint256"}],"outputs":[],"stateMutability":"nonpayable"},{"type":"function","name":"leaveLobby","inputs":[{"name":"gameId","type":"uint256","internalType":"uint256"}],"outputs":[],"stateMutability":"nonpayable"},{"type":"function","name":"oracle","inputs":[],"outputs":[{"name":"","type":"address","internalType":"address"}],"stateMutability":"view"},{"type":"function","name":"owner","inputs":[],"outputs":[{"name":"","type":"address","internalType":"address"}],"stateMutability":"view"},{"type":"function","name":"playerActiveGame","inputs":[{"name":"","type":"address","internalType":"address"}],"outputs":[{"name":"","type":"uint256","internalType":"uint256"}],"stateMutability":"view"},{"type":"function","name":"renounceOwnership","inputs":[],"outputs":[],"stateMutability":"nonpayable"},{"type":"function","name":"setOracle","inputs":[{"name":"_oracle","type":"address","internalType":"address"}],"outputs":[],"stateMutability":"nonpayable"},{"type":"function","name":"transferOwnership","inputs":[{"name":"newOwner","type":"address","internalType":"address"}],"outputs":[],"stateMutability":"nonpayable"},{"type":"event","name":"GameCancelled","inputs":[{"name":"gameId","type":"uint256","indexed":true,"internalType":"uint256"}],"anonymous":false},{"type":"event","name":"GameCompleted","inputs":[{"name":"gameId","type":"uint256","indexed":true,"internalType":"uint256"},{"name":"winners","type":"address[]","indexed":false,"internalType":"address[]"},{"name":"prizePerWinner","type":"uint256","indexed":false,"internalType":"uint256"}],"anonymous":false},{"type":"event","name":"GameCreated","inputs":[{"name":"gameId","type":"uint256","indexed":true,"internalType":"uint256"},{"name":"creator","type":"address","indexed":true,"internalType":"address"}],"anonymous":false},{"type":"event","name":"GameStarted","inputs":[{"name":"gameId","type":"uint256","indexed":true,"internalType":"uint256"},{"name":"players","type":"address[5]","indexed":false,"internalType":"address[5]"}],"anonymous":false},{"type":"event","name":"OracleUpdated","inputs":[{"name":"oldOracle","type":"address","indexed":true,"internalType":"address"},{"name":"newOracle","type":"address","indexed":true,"internalType":"address"}],"anonymous":false},{"type":"event","name":"OwnershipTransferred","inputs":[{"name":"previousOwner","type":"address","indexed":true,"internalType":"address"},{"name":"newOwner","type":"address","indexed":true,"internalType":"address"}],"anonymous":false},{"type":"event","name":"PlayerJoined","inputs":[{"name":"gameId","type":"uint256","indexed":true,"internalType":"uint256"},{"name":"player","type":"address","indexed":true,"internalType":"address"},{"name":"playerCount","type":"uint8","indexed":false,"internalType":"uint8"}],"anonymous":false},{"type":"event","name":"PlayerRefunded","inputs":[{"name":"gameId","type":"uint256","indexed":true,"internalType":"uint256"},{"name":"player","type":"address","indexed":true,"internalType":"address"},{"name":"amount","type":"uint256","indexed":false,"internalType":"uint256"}],"anonymous":false},{"type":"event","name":"TokensBurned","inputs":[{"name":"gameId","type":"uint256","indexed":true,"internalType":"uint256"},{"name":"amount","type":"uint256","indexed":false,"internalType":"uint256"}],"anonymous":false},{"type":"error","name":"AlreadyInGame","inputs":[]},{"type":"error","name":"GameFull","inputs":[]},{"type":"error","name":"GameNotActive","inputs":[]},{"type":"error","name":"GameNotInLobby","inputs":[]},{"type":"error","name":"InvalidWinners","inputs":[]},{"type":"error","name":"LobbyNotExpired","inputs":[]},{"type":"error","name":"NotInThisGame","inputs":[]},{"type":"error","name":"NotOracle","inputs":[]},{"type":"error","name":"OwnableInvalidOwner","inputs":[{"name":"owner","type":"address","internalType":"address"}]},{"type":"error","name":"OwnableUnauthorizedAccount","inputs":[{"name":"account","type":"address","internalType":"address"}]},{"type":"error","name":"ReentrancyGuardReentrantCall","inputs":[]},{"type":"error","name":"SafeERC20FailedOperation","inputs":[{"name":"token","type":"address","internalType":"address"}]},{"type":"error","name":"ZeroAddress","inputs":[]}],"bytecode":{"object":"0x60a060405234801562000010575f80fd5b50604051620019b8380380620019b883398101604081905262000033916200015a565b33806200005957604051631e4fbdf760e01b81525f600482015260240160405180910390fd5b6200006481620000ef565b5060017f9b779b17422d0df92223018b32b4d1fa46e071723d6817e2486d003becc55f00556001600160a01b0382161580620000a757506001600160a01b038116155b15620000c65760405163d92e233d60e01b815260040160405180910390fd5b6001600160a01b03918216608052600180546001600160a01b0319169190921617905562000190565b5f80546001600160a01b038381166001600160a01b0319831681178455604051919092169283917f8be0079c531659141344cd1fd0a4f28419497f9722a3daafe3b4186f6b6457e09190a35050565b80516001600160a01b038116811462000155575f80fd5b919050565b5f80604083850312156200016c575f80fd5b62000177836200013e565b915062000187602084016200013e565b90509250929050565b6080516117de620001da5f395f81816101b101528181610585015281816106260152818161068a015281816108f901528181610a8e01528181610dfe01526110ac01526117de5ff3fe608060405234801561000f575f80fd5b506004361061013d575f3560e01c80637dc0d1d0116100b4578063a2f77bcc11610079578063a2f77bcc14610300578063bf333f2c14610324578063efaa55a01461032d578063f2fde38b14610340578063faf5625f14610353578063fccc281314610363575f80fd5b80637dc0d1d0146102a2578063863df0a1146102b55780638da5cb5b146102d4578063948428f0146102e4578063a16353bf146102f7575f80fd5b8063574a5b2011610105578063574a5b20146102225780635894da7a14610264578063715018a6146102775780637255d7291461027f57806373f9c767146102875780637adbf9731461028f575f80fd5b8063117a5b901461014157806314d8b4af1461019757806332ffa82f146101ac5780633e7dfce1146101eb5780634d1975b41461020b575b5f80fd5b61017e61014f3660046113fe565b60026020525f908152604090206005810154600682015460079092015460ff8083169361010090930416919084565b60405161018e9493929190611449565b60405180910390f35b6101aa6101a5366004611472565b61036c565b005b6101d37f000000000000000000000000000000000000000000000000000000000000000081565b6040516001600160a01b03909116815260200161018e565b6101fe6101f93660046113fe565b61070f565b60405161018e91906114ea565b61021460035481565b60405190815260200161018e565b61024d610230366004611548565b6001600160a01b03165f9081526004602052604090205480151591565b60408051921515835260208301919091520161018e565b6101aa6102723660046113fe565b610807565b6101aa6109cf565b6102146109e2565b610214600581565b6101aa61029d366004611548565b610b3d565b6001546101d3906001600160a01b031681565b6102146102c3366004611548565b60046020525f908152604090205481565b5f546001600160a01b03166101d3565b6101aa6102f23660046113fe565b610bc7565b61021461025881565b61031361030e3660046113fe565b610ed8565b60405161018e959493929190611568565b6102146101f481565b6101aa61033b3660046113fe565b610f65565b6101aa61034e366004611548565b61118d565b61021468056bc75e2d6310000081565b6101d361dead81565b6001546001600160a01b0316331461039757604051631bc2178f60e01b815260040160405180910390fd5b61039f6111cc565b5f83815260026020526040902060016005820154610100900460ff1660038111156103cc576103cc611415565b146103e95760405162a3097160e01b815260040160405180910390fd5b8115806103f65750600582115b156104145760405163cfdacc2b60e01b815260040160405180910390fd5b5f5b828110156104cf575f805b60058160ff16101561049d5785858481811061043f5761043f6115c6565b90506020020160208101906104549190611548565b6001600160a01b03168460ff831660058110610472576104726115c6565b01546001600160a01b03160361048b576001915061049d565b80610495816115ee565b915050610421565b50806104bc5760405163cfdacc2b60e01b815260040160405180910390fd5b50806104c78161160c565b915050610416565b5060058101805461ff0019166102001790555f5b60058160ff161015610535575f6004818460ff851660058110610508576105086115c6565b01546001600160a01b0316815260208101919091526040015f20558061052d816115ee565b9150506104e3565b505f6127106101f4836007015461054c9190611624565b6105569190611641565b90505f8183600701546105699190611660565b90505f6105768583611641565b90506105ae6001600160a01b037f00000000000000000000000000000000000000000000000000000000000000001661dead856111e7565b867f8bc81353cf6671d259d22783e39ed930583c86f3f4cf7e981298e6a872dfb15d846040516105e091815260200190565b60405180910390a25f5b8581101561065f5761064d878783818110610607576106076115c6565b905060200201602081019061061c9190611548565b6001600160a01b037f00000000000000000000000000000000000000000000000000000000000000001690846111e7565b806106578161160c565b9150506105ea565b505f61066b8683611624565b6106759084611660565b905080156106b3576106b36001600160a01b037f00000000000000000000000000000000000000000000000000000000000000001661dead836111e7565b877ff0396577e47d6647983b8dcced985ee9ecc31b160c5c831aba152b492a1a2ca38888856040516106e793929190611673565b60405180910390a2505050505061070a60015f8051602061178983398151915255565b505050565b60605f8267ffffffffffffffff81111561072b5761072b6116c6565b604051908082528060200260200182016040528015610754578160200160208202803683370190505b506003549091505f905b5f8111801561076c57508482105b156107fe575f8082815260026020526040902060050154610100900460ff16600381111561079c5761079c611415565b1480156107bc57505f81815260026020526040902060059081015460ff16105b156107ec578083836107cd8161160c565b9450815181106107df576107df6115c6565b6020026020010181815250505b806107f6816116da565b91505061075e565b50815292915050565b61080f6111cc565b5f818152600260205260408120906005820154610100900460ff16600381111561083b5761083b611415565b146108595760405163709a446d60e11b815260040160405180910390fd5b610258816006015461086b91906116ef565b42101561088b57604051632bc71ccf60e01b815260040160405180910390fd5b60058101805461ff0019166103001790555f5b600582015460ff908116908216101561098a575f8260ff8316600581106108c7576108c76115c6565b01546001600160a01b031690508015610977576001600160a01b038082165f90815260046020526040812055610929907f0000000000000000000000000000000000000000000000000000000000000000168268056bc75e2d631000006111e7565b806001600160a01b0316847fff3116559cac6c47442d1f2083dc842de1f35c5f87fd25d7978d509fa59c1b1868056bc75e2d6310000060405161096e91815260200190565b60405180910390a35b5080610982816115ee565b91505061089e565b5060405182907f681705fdbd93dba3b679fd712577e9a86d57c5551c520f8c74857deb57f9623f905f90a2506109cc60015f8051602061178983398151915255565b50565b6109d761121c565b6109e05f611248565b565b5f6109eb6111cc565b335f9081526004602052604090205415610a185760405163c56fb25360e01b815260040160405180910390fd5b60035f8154610a269061160c565b91829055505f81815260026020908152604080832080546001600160a01b03191633908117825560058201805461ffff1916600117905542600683015568056bc75e2d63100000600783018190558186526004909452919093208490559293509091610abf917f00000000000000000000000000000000000000000000000000000000000000006001600160a01b031691903090611297565b604051339083907fc3e0f84839dc888c892a013d10c8f9d6dc05a21a879d0ce468ca558013e9121c905f90a360405160018152339083907f267de9464a1783407eb0e8ba56bcd59ef059648e576c0703bfd6a3b84355e8319060200160405180910390a350610b3a60015f8051602061178983398151915255565b90565b610b4561121c565b6001600160a01b038116610b6c5760405163d92e233d60e01b815260040160405180910390fd5b6001546040516001600160a01b038084169216907f078c3b417dadf69374a59793b829c52001247130433427049317bde56607b1b7905f90a3600180546001600160a01b0319166001600160a01b0392909216919091179055565b610bcf6111cc565b5f818152600260205260408120906005820154610100900460ff166003811115610bfb57610bfb611415565b14610c195760405163709a446d60e11b815260040160405180910390fd5b335f908152600460205260409020548214610c4757604051632f50950d60e11b815260040160405180910390fd5b5f805b600583015460ff9081169082161015610da957338360ff831660058110610c7357610c736115c6565b01546001600160a01b031603610d9757805b6005840154610c999060019060ff16611702565b60ff168160ff161015610d165783610cb282600161171b565b60ff1660058110610cc557610cc56115c6565b01546001600160a01b03168460ff831660058110610ce557610ce56115c6565b0180546001600160a01b0319166001600160a01b039290921691909117905580610d0e816115ee565b915050610c85565b5060058301545f908490610d2f9060019060ff16611702565b60ff1660058110610d4257610d426115c6565b0180546001600160a01b0319166001600160a01b039290921691909117905560058301805460ff16905f610d7583611734565b91906101000a81548160ff021916908360ff1602179055505060019150610da9565b80610da1816115ee565b915050610c4a565b5080610dc857604051632f50950d60e11b815260040160405180910390fd5b68056bc75e2d63100000826007015f828254610de49190611660565b9091555050335f81815260046020526040812055610e36907f00000000000000000000000000000000000000000000000000000000000000006001600160a01b03169068056bc75e2d631000006111e7565b60405168056bc75e2d631000008152339084907fff3116559cac6c47442d1f2083dc842de1f35c5f87fd25d7978d509fa59c1b189060200160405180910390a3600582015460ff165f03610ec05760058201805461ff00191661030017905560405183907f681705fdbd93dba3b679fd712577e9a86d57c5551c520f8c74857deb57f9623f905f90a25b50506109cc60015f8051602061178983398151915255565b610ee06113e0565b5f8281526002602052604080822060058082015460068301546007840154855160a081019096528695869586959094859460ff808316956101009093041693909286908282826020028201915b81546001600160a01b03168152600190910190602001808311610f2d5750505050509450955095509550955095505091939590929450565b610f6d6111cc565b335f9081526004602052604090205415610f9a5760405163c56fb25360e01b815260040160405180910390fd5b5f818152600260205260408120906005820154610100900460ff166003811115610fc657610fc6611415565b14610fe45760405163709a446d60e11b815260040160405180910390fd5b60058181015460ff161061100b5760405163b3ed896d60e01b815260040160405180910390fd5b60058101545f906110209060ff16600161171b565b6005808401549192503391849160ff909116908110611041576110416115c6565b0180546001600160a01b0319166001600160a01b039290921691909117905560058201805460ff191660ff831617905560078201805468056bc75e2d6310000091905f906110909084906116ef565b9091555050335f8181526004602052604090208490556110e5907f00000000000000000000000000000000000000000000000000000000000000006001600160a01b0316903068056bc75e2d63100000611297565b60405160ff82168152339084907f267de9464a1783407eb0e8ba56bcd59ef059648e576c0703bfd6a3b84355e8319060200160405180910390a360058160ff1603610ec05760058201805461ff00191661010017905560405183907fae4f1cbb65e93060e896bdde4cdc9be2123b7cabd290acd2b48ca244d79cf0519061116d90859061174f565b60405180910390a250506109cc60015f8051602061178983398151915255565b61119561121c565b6001600160a01b0381166111c357604051631e4fbdf760e01b81525f60048201526024015b60405180910390fd5b6109cc81611248565b6111d46112d3565b60025f8051602061178983398151915255565b6111f4838383600161130a565b61070a57604051635274afe760e01b81526001600160a01b03841660048201526024016111ba565b5f546001600160a01b031633146109e05760405163118cdaa760e01b81523360048201526024016111ba565b5f80546001600160a01b038381166001600160a01b0319831681178455604051919092169283917f8be0079c531659141344cd1fd0a4f28419497f9722a3daafe3b4186f6b6457e09190a35050565b6112a584848484600161136c565b6112cd57604051635274afe760e01b81526001600160a01b03851660048201526024016111ba565b50505050565b6112ec5f60025f805160206117898339815191526113d9565b156109e057604051633ee5aeb560e01b815260040160405180910390fd5b60405163a9059cbb60e01b5f8181526001600160a01b038616600452602485905291602083604481808b5af1925060015f51148316611360578383151615611354573d5f823e3d81fd5b5f873b113d1516831692505b60405250949350505050565b6040516323b872dd60e01b5f8181526001600160a01b038781166004528616602452604485905291602083606481808c5af1925060015f511483166113c85783831516156113bc573d5f823e3d81fd5b5f883b113d1516831692505b604052505f60605295945050505050565b5414919050565b6040518060a001604052806005906020820280368337509192915050565b5f6020828403121561140e575f80fd5b5035919050565b634e487b7160e01b5f52602160045260245ffd5b6004811061144557634e487b7160e01b5f52602160045260245ffd5b9052565b60ff85168152608081016114606020830186611429565b60408201939093526060015292915050565b5f805f60408486031215611484575f80fd5b83359250602084013567ffffffffffffffff808211156114a2575f80fd5b818601915086601f8301126114b5575f80fd5b8135818111156114c3575f80fd5b8760208260051b85010111156114d7575f80fd5b6020830194508093505050509250925092565b602080825282518282018190525f9190848201906040850190845b8181101561152157835183529284019291840191600101611505565b50909695505050505050565b80356001600160a01b0381168114611543575f80fd5b919050565b5f60208284031215611558575f80fd5b6115618261152d565b9392505050565b610120810181875f5b60058110156115995781516001600160a01b0316835260209283019290910190600101611571565b50505060ff861660a08301526115b260c0830186611429565b60e082019390935261010001529392505050565b634e487b7160e01b5f52603260045260245ffd5b634e487b7160e01b5f52601160045260245ffd5b5f60ff821660ff8103611603576116036115da565b60010192915050565b5f6001820161161d5761161d6115da565b5060010190565b808202811582820484141761163b5761163b6115da565b92915050565b5f8261165b57634e487b7160e01b5f52601260045260245ffd5b500490565b8181038181111561163b5761163b6115da565b604080825281018390525f8460608301825b868110156116b3576001600160a01b0361169e8461152d565b16825260209283019290910190600101611685565b5060209390930193909352509392505050565b634e487b7160e01b5f52604160045260245ffd5b5f816116e8576116e86115da565b505f190190565b8082018082111561163b5761163b6115da565b60ff828116828216039081111561163b5761163b6115da565b60ff818116838216019081111561163b5761163b6115da565b5f60ff821680611746576117466115da565b5f190192915050565b60a0810181835f5b600581101561177f5781546001600160a01b0316835260209092019160019182019101611757565b5050509291505056fe9b779b17422d0df92223018b32b4d1fa46e071723d6817e2486d003becc55f00a26469706673582212207e07bc8ef7d82add54e4f99a9a35628e25f437bb5561980b97ded5059bb8859464736f6c63430008140033","linkReferences":{}},"methodIdentifiers":{"BURN_ADDRESS()":"fccc2813","FEE_BPS()":"bf333f2c","LOBBY_TIMEOUT()":"a16353bf","PLAYERS_PER_GAME()":"73f9c767","STAKE_AMOUNT()":"faf5625f","cancelExpiredLobby(uint256)":"5894da7a","clawmegle()":"32ffa82f","completeGame(uint256,address[])":"14d8b4af","createGame()":"7255d729","gameCount()":"4d1975b4","games(uint256)":"117a5b90","getGame(uint256)":"a2f77bcc","getOpenLobbies(uint256)":"3e7dfce1","isPlayerInGame(address)":"574a5b20","joinGame(uint256)":"efaa55a0","leaveLobby(uint256)":"948428f0","oracle()":"7dc0d1d0","owner()":"8da5cb5b","playerActiveGame(address)":"863df0a1","renounceOwnership()":"715018a6","setOracle(address)":"7adbf973","transferOwnership(address)":"f2fde38b"},"id":0}